:100000000C9463000C948B000C948B000C948B006C
:100010000C948B000C948B000C948B000C94C804F3
:100020000C948B000C948B000C948B000C940A04A1
:100030000C948B000C948B000C948B000C948B0014
:100040000C94EF040C948B000C9405070C94570748
:100050000C948B000C948B000C948B000C948B00F4
:100060000C948B000C948B000000000024002700EF
:100070002A0000000000250028002B0000000000DE
:1000800023002600290004040404040404040202DA
:100090000202020203030303030301020408102007
:1000A0004080010204081020010204081020000012
:1000B0000007000201000003040600000000000029
:1000C00000008D00C60811241FBECFEFD8E0DEBFB0
:1000D000CDBF11E0A0E0B1E0EEEBFBE102C0059086
:1000E0000D92AA38B107D9F712E0AAE8B1E001C031
:1000F0001D92A038B107E1F710E0C6ECD0E004C0D3
:100100002297FE010E94D90DC23CD107C9F70E9477
:100110001D090C94DD0D0C94000082EA91E00E9410
:100120006A0308958091700160E00E94140682E0E5
:1001300090E00E9490058091700161E00E94140699
:100140008AE090E00E9490058091700160E00E943A
:10015000140680916E0161E020E432E44FE050E04B
:100160000E9468060E94460C60939201709393016E
:10017000809394019093950120E030E842E254E4AA
:100180000E94AD0B9B01AC0120939E0130939F0117
:100190004093A0015093A101089580916C0160E00B
:1001A0000E94140682E090E00E94900580916C010C
:1001B00061E00E9414068AE090E00E949005809120
:1001C0006C0160E00E94140680916A0161E020E405
:1001D00032E44FE050E00E9468060E94460C6093B3
:1001E0008E0170938F01809390019093910120E094
:1001F00030E842E254E40E94AD0B9B01AC01209335
:100200009A0130939B0140939C0150939D01089566
:100210008091680160E00E94140682E090E00E94F4
:1002200090058091680161E00E9414068AE090E0E8
:100230000E9490058091680160E00E941406809100
:10024000660161E020E432E44FE050E00E9468067D
:100250000E94460C60938A0170938B0180938C01FD
:1002600090938D0120E030E842E254E40E94AD0B0F
:100270009B01AC0120939601309397014093980124
:100280005093990108954F925F926F927F928F924F
:100290009F92AF92BF92CF92DF92EF92FF920F9315
:1002A0001F938091720161E00E9414068091740195
:1002B00060E00E9414068091760161E00E941406BD
:1002C0008091780160E00E9414060E9408013B01C1
:1002D0004C010E94CD007B018C010E9492005B01C9
:1002E0006C018EE592E00E9458098EE592E060E094
:1002F00071E00E94310B8EE592E00E9458098EE574
:1003000092E0B601A50122E030E00E942E0B8EE5BE
:1003100092E068E271E00E94470A8EE592E0B8013F
:10032000A70122E030E00E942E0B8EE592E068E209
:1003300071E00E94470A8EE592E0B401A30122E039
:1003400030E00E942E0BC801B70120E030E040E20F
:1003500052E40E94F80C1816F4F48091720161E0E6
:100360000E9414068091740161E00E94140680913D
:10037000760161E00E9414068091780161E00E949C
:1003800014068EE592E00E9458098EE592E061E342
:1003900071E00E94310B4424C401B30120E030E03D
:1003A00040E252E40E94A90B8823BCF44424439405
:1003B000C601B50120E030E040E252E40E94F80CB2
:1003C00018165CF4C801B70120E030E040E252E4C6
:1003D0000E94A90B88230CF4E0C05524C401B3018A
:1003E00020E030E040E252E40E94F80C1816BCF421
:1003F00055245394C601B50120E030E040E252E4B8
:100400000E94A90B88235CF4C801B70120E030E00A
:1004100040E252E40E94A90B88230CF4E3C044207C
:1004200009F49AC0C601B50120E030E040E252E490
:100430000E94A90B88230CF08FC0C801B70120E0EF
:1004400030E040E252E40E94A90B88230CF084C003
:10045000C401B301A60195010E94F80C18164CF4D2
:10046000C401B301A80197010E94F80C18160CF4FE
:10047000B9C0C401B301A60195010E94A90B88234C
:100480004CF4C601B501A80197010E94F80C18169A
:100490000CF483C0C801B701A40193010E94F80CB9
:1004A00018162CF5C801B701A60195010E94F80C99
:1004B0001816ECF48091720161E00E94140680919C
:1004C000740161E00E9414068091760161E00E944F
:1004D00014068091780161E00E9414068EE592E096
:1004E0000E9458098EE592E061E371E097C0C8016F
:1004F000B701A40193010E94A90B882329F060E0B1
:1005000070E080E090E004C060E070E080E89FE38D
:10051000A60195010E94A90B882309F081C0809152
:10052000720160E00E9414068091740160E00E94F4
:1005300014068091760160E00E9414068091780193
:1005400060E00E9414068EE592E00E9458098EE554
:1005500092E063E571E062C0552009F461C0C60114
:10056000B50120E030E040E252E40E94F80C181699
:100570000CF056C0C801B70120E030E040E252E480
:100580000E94A90B88230CF04BC0C601B501A40141
:1005900093010E94F80C1816ECF48091720160E04F
:1005A0000E9414068091740161E00E9414068091FB
:1005B000760161E00E9414068091780160E00E945B
:1005C00014068EE592E00E9458098EE592E06EE3F3
:1005D00071E024C0C401B301A60195010E94F80C8A
:1005E0001816F4F48091720161E00E941406809163
:1005F000740160E00E9414068091760160E00E9420
:1006000014068091780161E00E9414068EE592E064
:100610000E9458098EE592E068E471E00E94310B77
:1006200060ED77E080E090E00E9437051F910F9128
:10063000FF90EF90DF90CF90BF90AF909F908F9002
:100640007F906F905F904F9008958EE592E040E824
:1006500055E260E070E00E94920782EA91E06CE06F
:1006600070E00E94030480916E0160E00E94D50555
:100670008091700161E00E94D50580916A0160E07F
:100680000E94D50580916C0161E00E94D5058091A2
:10069000660160E00E94D5058091680161E00E94DA
:1006A000D5058CE061E00E94D5058091720161E082
:1006B0000E94D5058091740161E00E94D50580916A
:1006C000760161E00E94D5058091780161E00E9489
:1006D000D5050895FC018091A5018C3090F48083AC
:1006E0008F5F8093A501815090E0FC01EE0FFF1F0A
:1006F000E80FF91FEA55FE4F88EB9BE09283818358
:1007000008958FEF80830895CF92DF92EF92FF924A
:100710001F93CF93DF93EC01162F7A016901888133
:100720008C3008F064C0862F61E00E94D505888176
:1007300090E0FC01EE0FFF1FE80FF91FEA55FE4F96
:100740001F738081807C812B808380E292E08E19F0
:100750009F0964E070E00E94A20D698380E699E041
:100760008C199D0964E070E00E94A20D6A83A88143
:100770008A2F6CE00E94820D682F70E0AB01440F5D
:10078000551F460F571F440F551F440F551F20E09C
:1007900030E0C901840F951FFC01EE0FFF1FE80F29
:1007A000F91FEA55FE4F808186FD15C02F5F3F4F30
:1007B0002C30310571F724C01092800082E08093C4
:1007C00081001092850010928400B19A80916F0090
:1007D000826080936F008A2F90E0FC01EE0FFF1F74
:1007E000E80FF91FEA55FE4F80818064808388817D
:1007F000DF91CF911F91FF90EF90DF90CF90089500
:10080000672BD1F2E8CF40E252E020E639E00E94C7
:10081000840308951F920F920FB60F9211242F9305
:100820003F934F935F936F937F938F939F93AF9378
:10083000BF93EF93FF938091CA0187FF05C0109289
:100840008500109284002BC02091CA01332727FD18
:1008500030958091A50190E02817390704F5809123
:10086000CA01992787FD9095FC01EE0FFF1FE80F45
:10087000F91FEA55FE4F808186FF11C08091CA01A1
:10088000992787FD9095FC01EE0FFF1FE80FF91FD8
:10089000EA55FE4F80818F7360E00E9414068091BC
:1008A000CA018F5F8093CA012091CA01332727FDB7
:1008B00030958091A50190E0281739070CF04EC0C3
:1008C0008091CA018C300CF049C020918400309195
:1008D00085008091CA01992787FD9095FC01EE0F54
:1008E000FF1FE80FF91FEA55FE4F81819281280F03
:1008F000391F30938900209388008091CA0199277D
:1009000087FD9095FC01EE0FFF1FE80FF91FEA55D8
:10091000FE4F808186FF2BC08091CA01992787FDF9
:100920009095FC01EE0FFF1FE80FF91FEA55FE4FEF
:1009300080818F7361E00E94140619C080E49CE9F5
:1009400005C0809184009091850004969093890061
:10095000809388008FEF8093CA0109C08091840042
:1009600090918500049680549C4940F3EACFFF9112
:10097000EF91BF91AF919F918F917F916F915F9117
:100980004F913F912F910F900FBE0F901F90189590
:100990001F920F920FB60F9211242F933F934F93F4
:1009A0005F936F937F938F939F93AF93BF93EF93D7
:1009B000FF93E091CB01F091CC010995FF91EF916C
:1009C000BF91AF919F918F917F916F915F914F9167
:1009D0003F912F910F900FBE0F901F9018951F926F
:1009E0000F920FB60F9211242F933F938F939F93E3
:1009F000AF93BF938091D1019091D201A091D30187
:100A0000B091D4013091D5010196A11DB11D232FC4
:100A10002D5F2D3720F02D570196A11DB11D20937C
:100A2000D5018093D1019093D201A093D301B093CB
:100A3000D4018091CD019091CE01A091CF01B091D0
:100A4000D0010196A11DB11D8093CD019093CE01DF
:100A5000A093CF01B093D001BF91AF919F918F919F
:100A60003F912F910F900FBE0F901F9018959B01F3
:100A7000AC017FB7F8948091CD019091CE01A09107
:100A8000CF01B091D00166B5A89B05C06F3F19F0AA
:100A90000196A11DB11D7FBFBA2FA92F982F8827BE
:100AA000860F911DA11DB11D62E0880F991FAA1F1D
:100AB000BB1F6A95D1F7BC012DC0FFB7F894809198
:100AC000CD019091CE01A091CF01B091D001E6B5BA
:100AD000A89B05C0EF3F19F00196A11DB11DFFBFF6
:100AE000BA2FA92F982F88278E0F911DA11DB11DF8
:100AF000E2E0880F991FAA1FBB1FEA95D1F7861B5A
:100B0000970B885E9340C8F22150304040405040DF
:100B100068517C4F211531054105510571F6089545
:100B2000019739F0880F991F880F991F0297019735
:100B3000F1F70895789484B5826084BD84B58160AE
:100B400084BD85B5826085BD85B5816085BDEEE6D5
:100B5000F0E0808181608083E1E8F0E010828081B4
:100B600082608083808181608083E0E8F0E0808122
:100B700081608083E1EBF0E0808184608083E0EB42
:100B8000F0E0808181608083EAE7F0E0808184602A
:100B90008083808182608083808181608083808186
:100BA000806880831092C1000895CF93DF93482F0F
:100BB00050E0CA0186569F4FFC0134914A575F4F5F
:100BC000FA018491882369F190E0880F991FFC0154
:100BD000E859FF4FA591B491FC01EE58FF4FC59124
:100BE000D491662351F42FB7F8948C91932F90955C
:100BF00089238C93888189230BC0623061F42FB7DD
:100C0000F8948C91932F909589238C938881832BD2
:100C100088832FBF06C09FB7F8948C91832B8C9349
:100C20009FBFDF91CF910895482F50E0CA018255B0
:100C30009F4FFC012491CA0186569F4FFC0194915D
:100C40004A575F4FFA013491332309F440C02223FD
:100C500051F1233071F0243028F42130A1F02230FA
:100C600011F514C02630B1F02730C1F02430D9F48A
:100C700004C0809180008F7703C0809180008F7DB9
:100C80008093800010C084B58F7702C084B58F7DBB
:100C900084BD09C08091B0008F7703C08091B000FF
:100CA0008F7D8093B000E32FF0E0EE0FFF1FEE5832
:100CB000FF4FA591B4912FB7F894662321F48C913E
:100CC0009095892302C08C91892B8C932FBF089516
:100CD0008F929F92AF92BF92CF92DF92EF92FF924C
:100CE0000F931F93CF93DF93A82FB0E0CD018656CB
:100CF0009F4FFC018490AA57BF4FFD01849166234A
:100D000011F4992401C0982C6FEFA62E6FEFB62E28
:100D10006FEFC62E6FE0D62EA222B322C422D522B8
:100D2000682F70E0660F771F64587F4FEE24FF2412
:100D30008701FB01A591B4910BC0EA14FB040C05DB
:100D40001D0509F44EC00894E11CF11C011D111D84
:100D50008C918821891589F30CC0EA14FB040C05D9
:100D60001D0509F43EC00894E11CF11C011D111D74
:100D700003C0FB01A591B4918C918821891569F775
:100D800020E030E040E050E0FB01C591D4910FC07D
:100D9000DA01C9018E0D9F1DA01FB11F8A159B0589
:100DA000AC05BD05F1F02F5F3F4F4F4F5F4F88817E
:100DB0008821891569F3CA01B90125E130E040E0D5
:100DC00050E00E94630D9B01AC01205F3F4F4F4FED
:100DD0005F4F84E056954795379527958A95D1F7CB
:100DE00004C020E030E040E050E0B901CA01DF91EA
:100DF000CF911F910F91FF90EF90DF90CF90BF9018
:100E0000AF909F908F90089508951F920F920FB604
:100E10000F9211242F933F934F938F939F93EF93B0
:100E2000FF938091C00082FD1DC04091C6002091BB
:100E30001602309117022F5F3F4F2F733070809151
:100E40001802909119022817390771F0E0911602E3
:100E5000F0911702EA52FE4F40833093170220931D
:100E6000160202C08091C600FF91EF919F918F9171
:100E70004F913F912F910F900FBE0F901F9018959B
:100E8000E0916A02F0916B02E05CFF4F81919191D9
:100E900020813181805C9F4F821B930B60E470E066
:100EA0000E94A20D892B11F00E94040708951F9241
:100EB0000F920FB60F9211242F933F938F939F930E
:100EC000EF93FF9320915A0230915B0280915C0274
:100ED00090915D022817390731F48091C1008F7D10
:100EE0008093C10014C0E0915C02F0915D02E65E67
:100EF000FD4F208180915C0290915D0201968F737D
:100F0000907090935D0280935C022093C600FF91E5
:100F1000EF919F918F913F912F910F900FBE0F9066
:100F20001F901895AF92BF92DF92EF92FF920F93AE
:100F30001F93CF93DF93EC017A018B01DD244030C6
:100F400081EE580780E0680780E0780711F0DD2423
:100F5000D39491E0A92EB12CEC89FD89DD2069F0B4
:100F6000C50108A002C0880F991F0A94E2F7808388
:100F700060E079E08DE390E005C0108260E874E8FD
:100F80008EE190E0A80197010E94B50D21503040FC
:100F900040405040569547953795279580E1203041
:100FA000380720F0DD2011F0DD24D6CFE889F9895B
:100FB0003083EA89FB89208319A2EE89FF89408169
:100FC00021E030E0C9010C8C02C0880F991F0A94FF
:100FD000E2F7482B4083EE89FF894081C9010D8CDF
:100FE00002C0880F991F0A94E2F7482B4083EE89CC
:100FF000FF894081C9010E8C02C0880F991F0A9495
:10100000E2F7482B4083EE89FF8980810F8C02C074
:10101000220F331F0A94E2F7209528232083DF91C3
:10102000CF911F910F91FF90EF90DF90BF90AF9005
:101030000895DC011C96ED91FC911D97E05CFF4F3B
:101040008191919120813181805C9F4F821B930B14
:1010500060E470E00E94A20D0895DC011C96ED9101
:10106000FC911D97E05CFF4F20813181E054F040FE
:10107000DF01AE5BBF4F8D919C9111972817390707
:1010800019F42FEF3FEF07C08D919C91E80FF91FE6
:101090008081282F30E0C9010895DC011C96ED9174
:1010A000FC911D97E05CFF4F20813181E054F040BE
:1010B000DF01AE5BBF4F8D919C91119728173907C7
:1010C00019F42FEF3FEF10C08D919C911197E80F0D
:1010D000F91F20818D919C91119701968F739070CB
:1010E00011969C938E9330E0C9010895DC0191968E
:1010F0008C919197882339F05496ED91FC915597F6
:10110000808186FFF9CF91961C920895CF93DF934B
:10111000EC01EE85FF85E05CFF4F20813181E054DA
:10112000F0402F5F3F4F2F733070DF01AE5BBF4F3A
:101130008D919C91119728173907D1F3E05CFF4FEF
:1011400080819181E054F040E80FF91F6083EE85C3
:10115000FF85E05CFF4F31832083EE89FF8920818A
:1011600081E090E00F8C02C0880F991F0A94E2F78B
:10117000282B208381E089A3EC89FD89808180640C
:10118000808381E090E0DF91CF9108951092610219
:101190001092600288EE93E0A0E0B0E080936202DB
:1011A00090936302A0936402B09365028EE791E08E
:1011B00090935F0280935E0286ED91E090936B02C4
:1011C00080936A028AE192E090936D0280936C02B0
:1011D00085EC90E090936F0280936E0284EC90E037
:1011E000909371028093700280EC90E09093730270
:1011F0008093720281EC90E0909375028093740268
:1012000082EC90E0909377028093760286EC90E0F7
:10121000909379028093780284E080937A0283E04D
:1012200080937B0287E080937C0285E080937D023F
:1012300081E080937E0208950895CF93DF930E940A
:101240009A050E941C090E942503C0E4D7E00E9471
:1012500043012097E1F30E944007F9CFCF92DF923C
:10126000EF92FF920F931F93CF93DF937C016B015B
:101270008A01C0E0D0E00FC0D6016D916D01D701A9
:10128000ED91FC910190F081E02DC7010995C80F07
:10129000D91F015010400115110571F7CE01DF91E2
:1012A000CF911F910F91FF90EF90DF90CF90089515
:1012B000EF92FF920F931F938C01DC01ED91FC9153
:1012C0000190F081E02D6DE009957C01D801ED9150
:1012D000FC910190F081E02DC8016AE009959C0124
:1012E0002E0D3F1DC9011F910F91FF90EF900895A2
:1012F000CF93DF93EC016115710519F420E030E024
:101300000FC0DB010D900020E9F71197A61BB70B6A
:10131000E881F9810280F381E02DAD0109959C01FE
:10132000C901DF91CF9108954F925F927F928F9282
:101330009F92AF92BF92CF92DF92EF92FF920F9364
:101340001F93DF93CF93CDB7DEB7A1970FB6F89475
:10135000DEBF0FBECDBF2C01742ECB01223008F4AE
:101360002AE019A231E2C32ED12CCC0EDD1E822E32
:101370009924AA24BB24672D752FA50194010E94EE
:10138000B50D79018A01C801B701A50194010E9438
:10139000630D472D461B0894C108D1084A3014F448
:1013A000405D01C0495CF6014083E114F104010590
:1013B000110521F07E2C5F2DC801DDCFC201B601E1
:1013C0000E947809A1960FB6F894DEBF0FBECDBF7C
:1013D000CF91DF911F910F91FF90EF90DF90CF9011
:1013E000BF90AF909F908F907F905F904F900895A7
:1013F000DC012115310541F4ED91FC910190F08162
:10140000E02D642F099508950E9494090895CF92C4
:10141000DF92EF92FF920F931F93CF93DF93EC0134
:101420006A017B012115310541F4E881F9810190C0
:10143000F081E02D642F09951FC02A303105D1F4C9
:1014400077FF17C0E881F9810190F081E02D6DE20E
:1014500009958C0144275527BA014C195D096E097D
:101460007F09CE012AE00E9494099801280F391FB4
:1014700004C02AE00E9494099C01C901DF91CF9128
:101480001F910F91FF90EF90DF90CF9008950E94F1
:10149000780908957F928F929F92AF92BF92CF92D8
:1014A000DF92EF92FF920F931F93CF93DF934C0144
:1014B0007A018B01722ECB01BA01A80197010E941B
:1014C0005F0D882321F0C40168E571E021C0C0E010
:1014D000D0E057016801E894D7F8C601B5012FEFB5
:1014E0003FEF4FE75FE70E945F0D882351F4C6018D
:1014F000B5012FEF3FEF4FE75FE70E94A90B1816EA
:1015000014F0C1E0D0E0219739F0C4016CE571E03E
:101510000E947809EC0193C0C801B7012FEF3FEF9B
:101520004FE75FE40E94F80C181654F0C801B701A9
:101530002FEF3FEF4FE75FEC0E94A90B882324F4C5
:10154000C40160E671E0E4CFC801B70120E030E0FB
:1015500040E050E00E94A90B87FD03C0C0E0D0E04E
:101560000EC0D401ED91FC910190F081E02DC401F9
:101570006DE20995EC0117FB109517F9109520E025
:1015800030E040E05FE3DD240BC0CA01B90120E098
:1015900030E040E251E40E94AD0B9B01AC01D394DA
:1015A000D71498F3C801B7010E94450B5B016C0189
:1015B0000E941A0C7B018C01C401B801A7012AE02A
:1015C00030E00E94F809C80FD91F772039F0C40114
:1015D00064E671E00E947809C80FD91FC801B701FD
:1015E0000E94460C9B01AC01C601B5010E94440B50
:1015F00024C020E030E040E251E40E94FC0C7B017A
:101600008C010E94150C5B016C01CC24B7FCC094CA
:10161000DC2CC401B601A5012AE030E00E94070AD3
:10162000C80FD91FC601B5010E94480C9B01AC012F
:10163000C801B7010E94440B7A947720D1F6CE01FD
:10164000DF91CF911F910F91FF90EF90DF90CF909E
:10165000BF90AF909F908F907F9008950E944A0A0C
:101660000895EF92FF920F931F937C010E947809D7
:101670008C01C7010E945809080F191FC8011F914A
:101680000F91FF90EF9008955058BB27AA270ED0D6
:1016900075C166D130F06BD120F031F49F3F11F469
:1016A0001EF45BC10EF4E095E7FB51C1E92F77D141
:1016B00080F3BA17620773078407950718F071F46F
:1016C0009EF58FC10EF4E0950B2EBA2FA02D0B01C5
:1016D000B90190010C01CA01A0011124FF27591B77
:1016E00099F0593F50F4503E68F11A16F040A22F7D
:1016F000232F342F4427585FF3CF469537952795EE
:10170000A795F0405395C9F77EF41F16BA0B620BEC
:10171000730B840BBAF09150A1F0FF0FBB1F661F33
:10172000771F881FC2F70EC0BA0F621F731F841F76
:1017300048F4879577956795B795F7959E3F08F09C
:10174000B3CF9395880F08F09927EE0F979587955B
:101750000895D9D008F481E008950CD00FC107D1C5
:1017600040F0FED030F021F45F3F19F0F0C051118D
:1017700039C1F3C014D198F39923C9F35523B1F3B8
:10178000951B550BBB27AA2762177307840738F0F0
:101790009F5F5F4F220F331F441FAA1FA9F333D04F
:1017A0000E2E3AF0E0E830D091505040E695001C03
:1017B000CAF729D0FE2F27D0660F771F881FBB1FBF
:1017C000261737074807AB07B0E809F0BB0B802D99
:1017D000BF01FF2793585F4F2AF09E3F510568F0E5
:1017E000B6C000C15F3FECF3983EDCF38695779579
:1017F0006795B795F7959F5FC9F7880F911D9695E7
:10180000879597F90895E1E0660F771F881FBB1F42
:10181000621773078407BA0720F0621B730B840BEF
:10182000BA0BEE1F88F7E095089504D06894B111C3
:10183000D9C00895BCD088F09F5790F0B92F992750
:10184000B751A0F0D1F0660F771F881F991F1AF0CB
:10185000BA95C9F712C0B13081F0C3D0B1E0089594
:10186000C0C0672F782F8827B85F39F0B93FCCF315
:10187000869577956795B395D9F73EF490958095C1
:10188000709561957F4F8F4F9F4F0895E89409C0E1
:1018900097FB3EF490958095709561957F4F8F4FA3
:1018A0009F4F9923A9F0F92F96E9BB279395F695B9
:1018B000879577956795B795F111F8CFFAF4BB0F37
:1018C00011F460FF1BC06F5F7F4F8F4F9F4F16C09B
:1018D000882311F096E911C0772321F09EE8872F25
:1018E000762F05C0662371F096E8862F70E060E0E1
:1018F0002AF09A95660F771F881FDAF7880F96955A
:10190000879597F90895990F0008550FAA0BE0E8FD
:10191000FEEF16161706E807F907C0F012161306B1
:10192000E407F50798F0621B730B840B950B39F4F1
:101930000A2661F0232B242B252B21F408950A2657
:1019400009F4A140A6958FEF811D811D089597F997
:101950009F6780E870E060E008959FEF80EC089555
:1019600000240A941616170618060906089500247E
:101970000A9412161306140605060895092E0394F8
:10198000000C11F4882352F0BB0F40F4BF2B11F46C
:1019900060FF04C06F5F7F4F8F4F9F4F089557FDCB
:1019A0009058440F551F59F05F3F71F04795880FCD
:1019B00097FB991F61F09F3F79F087950895121664
:1019C00013061406551FF2CF4695F1DF08C0161610
:1019D00017061806991FF1CF8695710561050894C1
:1019E0000895E894BB2766277727CB0197F90895D8
:1019F0008ADF08F48FEF08950BD0C0CFB1DF28F055
:101A0000B6DF18F0952309F0A2CFA7CF1124EACFB3
:101A1000C6DFA0F3959FD1F3950F50E0551F629F4D
:101A2000F001729FBB27F00DB11D639FAA27F00D37
:101A3000B11DAA1F649F6627B00DA11D661F829F5E
:101A40002227B00DA11D621F739FB00DA11D621F43
:101A5000839FA00D611D221F749F3327A00D611D60
:101A6000231F849F600D211D822F762F6A2F112442
:101A70009F5750408AF0E1F088234AF0EE0FFF1F95
:101A8000BB1F661F771F881F91505040A9F79E3FCC
:101A9000510570F05CCFA6CF5F3FECF3983EDCF3CE
:101AA000869577956795B795F795E7959F5FC1F709
:101AB000FE2B880F911D9695879597F9089523DF42
:101AC000880B990B0895629FD001739FF001829F4C
:101AD000E00DF11D649FE00DF11D929FF00D839FBD
:101AE000F00D749FF00D659FF00D9927729FB00D5A
:101AF000E11DF91F639FB00DE11DF91FBD01CF016D
:101B000011240895991B79E004C0991F961708F0D5
:101B1000961B881F7A95C9F780950895AA1BBB1B51
:101B200051E107C0AA1FBB1FA617B70710F0A61BDD
:101B3000B70B881F991F5A95A9F780959095BC01FE
:101B4000CD01089597FB092E07260AD077FD04D012
:101B5000E5DF06D000201AF4709561957F4F089557
:101B6000F6F7909581959F4F0895A1E21A2EAA1B32
:101B7000BB1BFD010DC0AA1FBB1FEE1FFF1FA2173D
:101B8000B307E407F50720F0A21BB30BE40BF50B3A
:101B9000661F771F881F991F1A9469F760957095C3
:101BA000809590959B01AC01BD01CF010895EE0F8A
:0E1BB000FF1F0590F491E02D0994F894FFCFEB
:101BBE0044697374616E63652066726F6D2074681C
:101BCE0065206F626A65637420746F206561636857
:101BDE002073656E736F720020202020202020203D
:101BEE00004D4F564520464F5257415244004D4FDF
:101BFE005645204C454654004D4F564520524947B8
:101C0E0048540053544F50006E616E00696E66006A
:101C1E006F7666002E0006000700080009000D0012
:101C2E000A00020003000400050000000000860800
:0A1C3E002E0919084D082D0876083C
:00000001FF
